:100000000C94CF020C9407030C9407030C94070381
:100010000C9407030C9407030C9407030C94070338
:100020000C9407030C9407030C94AE250C948226C1
:100030000C94CA200C9407030C9407030C94070338
:100040000C9407030C9407030C9407030C94070308
:100050000C9407030C9451210C9407030C94070390
:100060000C9407030C9407030C9407030C940703E8
:100070000C9407030C9407030C9407030C940703D8
:100080000C9407030C9407030C9407030C940703C8
:100090000C9407030C9407030C9407030C940703B8
:1000A0000C9407030C9407030C94070329001E000B
:1000B0001F0020002100220023002400250026002C
:1000C00027002D002E0031002B0014001A0008001C
:1000D000150017001C0018000C00120013002F0060
:1000E00030003500E00004001600070009000A0097
:1000F0000B000D000E000F003300340000002A003A
:10010000E10000001D001B000600190005001100A1
:100110001000360037003800E50028000000E2003B
:100120002252000000002C0000000000000000002F
:100130000000E700E600215201003A003B003C00CD
:100140003D003E003F0040004100420043004400AB
:100150004500490039002078217822780278057816
:1001600001000100460047004800520001004C0019
:100170000100A900AA00A800B00001005500540029
:100180004A004B0050004F00000001000100000039
:1001900001000100010001000100570056004D0060
:1001A0004E00510001005800000001000100000055
:1001B000000001000000000000000000000001003D
:1001C0000100010001003A003B003C003D003E0000
:1001D0003F00400041004200430044004500490008
:1001E00039004A004D00010001000100010001003A
:1001F000010001000100010001004C00E300A90022
:10020000AA00A800B00001005000510052004F00A9
:100210000100010000000100010000004B004E0041
:1002200001000100010001000100010001000100C6
:100230000100280000000100010000000000010092
:1002400000000000000000000000010001000100AB
:100250001E0F0500047F3F1F643214643214783C83
:100260001E1E140A052223252628292A2C2D2F306C
:1002700032333536383A3B3D3E4042434547494AA2
:100280004C4E5051535557595A5C5E6062646668D3
:10029000696B6D6F71737577797B7D7F81838587DE
:1002A000898A8C8E90929496989A9C9E9FA1A3A5E1
:1002B000A7A8AAACAEAFB1B3B4B6B8B9BBBCBEBF09
:1002C000C1C2C3C5C6C7C9CACBCCCDCED0D1D2D28C
:1002D000D3D4D5D6D7D7D8D9D9DADADBDBDBDCDC97
:1002E000DCDCDCDDDDDDDDDCDCDCDCDCDBDBDBDA4F
:1002F000DAD9D9D8D7D7D6D5D4D3D2D2D1D0CECDBA
:10030000CCCBCAC9C7C6C5C3C2C1BFBEBCBBB9B8C6
:10031000B6B4B3B1AFAEACAAA8A7A5A3A19F9E9C4B
:100320009A98969492908E8C8A89878583817F7D16
:100330007B79777573716F6D6B6968666462605EF7
:100340005C5A5957555351504E4C4A4947454342C0
:10035000403E3D3B3A3836353332302F2D2C2A295A
:100360002826252322FFAA7F554000010101010113
:10037000010101010202020202020202020303035E
:10038000030303030304040404040404050505052E
:1003900005060606060607070707070808080809EE
:1003A0000909090A0A0A0B0B0B0C0C0C0D0D0D0E9A
:1003B0000E0E0F0F0F10101111111212131314142F
:1003C000151516161717181819191A1A1B1B1C1DA4
:1003D0001D1E1E1F202021222223242425262627FD
:1003E0002829292A2B2C2D2D2E2F3031323233342F
:1003F00035363738393A3B3C3D3E3F404142434435
:1004000045464748494A4C4D4E4F50515354555616
:1004100058595A5B5D5E5F616264656668696B6CC2
:100420006D6F7072737577787A7B7D7E808283853D
:1004300087888A8C8E8F91939596989A9C9EA0A27D
:10044000A3A5A7A9ABADAFB1B3B5B7BABCBEC0C287
:10045000C4C6C9CBCDCFD1D4D6D8DBDDDFE2E4E74B
:10046000E9EBEEF0F3F5F8FAFDFF100354006F002E
:100470006B0079006F003600300000001E0354004E
:100480006F006B0079006F0020004B006500790061
:1004900062006F0061007200640000000403090440
:1004A00009023B00020100A032090400000103011F
:1004B0000100092111010001224400070581030800
:1004C00000010904010001030000000921110100DD
:1004D00001226D00070582032000011201000200C5
:1004E00000000836546060010001020001050109A6
:1004F00080A101850319012AB700150126B70095CF
:100500000175108100C0050C0901A10185041901C4
:100510002AA002150126A002950175108100C005D0
:10052000010906A1018506050719E029E71500253F
:10053000019508750181020507190029EF150025AD
:100540000195F075018102050819012905950575C8
:10055000019102950175039101C005010906A101F0
:10056000050719E029E715002501950875018102A5
:100570009501750881010507190029FF150026FF5F
:100580000095067508810005081901290515002543
:1005900001950575019102950175039101C0112422
:1005A0001FBECFEFDAE0DEBFCDBF04B603FE18C03A
:1005B0008091590390915A03A0915B03B0915C0321
:1005C0008730904BA740B04B59F4109259031092CA
:1005D0005A0310925B0310925C03E0E0F8E3099584
:1005E00011E0A0E0B1E0E8E9F5E502C005900D9268
:1005F000A83DB107D9F723E0A8EDB1E001C01D92F5
:10060000A935B207E1F70E94D7120C94372A0C944F
:1006100000008330B8F46530A8F44E3098F450E010
:100620009EE0699F400D511D1124FA0196E4899FB7
:10063000E00DF11D1124EE0FFF1FE455FF4F8591D2
:100640009491089581E090E008950E94090308952F
:1006500081E008950E942803089581E008950E9492
:10066000280308950E942F03089508950E943503DA
:100670000895A6E0B0E0EFE3F3E00C94E3284983AB
:100680005A839E833091DF0189819A8131111AC08A
:100690003E81332399F0222389F00E943409182FD8
:1006A000682F89819A810E94100969817A81812F3E
:1006B0000E9451102696E3E00C94FF280E94220924
:1006C000182FF3CF0E94340969817A81F1CFFC01A0
:1006D000262F4081518162817381848195810E949E
:1006E00039030895CF93DF93EC0161E00E94670323
:1006F000BE010E942A03DF91CF910895CF93DF932B
:10070000EC0160E00E946703BE010E943603DF91A6
:10071000CF91089581E008950E948A030895CF93B0
:10072000C82F0E94E5078C2F0E948C032FEF84E3D3
:100730009CE0215080409040E1F700C00000CF9144
:10074000089581E00E948F030E947521089580E042
:100750000E948F030E94992108950F931F93CF93B6
:10076000DF938C0161E00E946703EC01F801858151
:1007700081110E941F1AB801CE010E94320381111B
:1007800006C080E0DF91CF911F910F910895B801CD
:10079000CE010E94921B8823A1F3B801CE010E94D2
:1007A000D51E882371F3B801CE010E94951D8823C0
:1007B00041F3B801CE010E946B1D882311F3B801EB
:1007C000CE010E943E1A8823E1F2F8018581882338
:1007D00061F0C330FCE7DF07E9F058F4C115ECE73E
:1007E000DE07A9F0C130DC47B9F0C8010E942D0333
:1007F000C9CFCB358CE7D807A9F0CC35ECE7DE07BD
:1008000071F0CA35DC4789F70E947B0DEECF0E945C
:10081000A103B7CF0E94830D0E94A703B2CF0E940D
:10082000710DE3CF0E947F0DE0CF0E94A62080E0F3
:100830000E94711B0E94410408950E94C11A0E94E7
:1008400045040E94AB200895089581E0089508951D
:10085000CF93DF93D82F0E942504C82F882319F047
:100860008D2F0E9427048C2FDF91CF91089508953A
:10087000CF93C82F0E9424048C2F0E942804CF916C
:10088000089580E00E94380408950E941E1F0E946F
:1008900038040895CF930E941E1FC82F8091DA015B
:1008A0008C1779F0C093DA010E9436216093DB0146
:1008B0007093DC018093DD019093DE018C2F0E9408
:1008C0003804CF910895ADE0B0E0E9E6F4E00C948F
:1008D000E428488759876A877B878C879D87911191
:1008E0000E94810C1F8286E0FE013896DE0111967F
:1008F00001900D928A95E1F78D8181110DC02981BA
:100900003A814B815C816D817E818F810E94CB0B0E
:100910002D96E2E00C940029CE0101960E9472030C
:100920008111EDCFF5CFFC012481213021F48081AC
:1009300091810E9466090895CF93C82F8823C9F03A
:100940008238C9F40E942B1F81FD13C089E30E94E5
:100950003C200E94150D2FEF87EE93E02150804040
:100960009040E1F700C0000089E30E9453200E94FC
:10097000150DCF9108958338A1F40E942B1F80FD9F
:10098000F8CF83E50E943C200E94150D2FEF81EEE9
:1009900094E0215080409040E1F700C0000083E5E2
:1009A000E4CF8438A1F40E942B1F82FDE2CF87E4BC
:1009B0000E943C200E94150D2FEF81EE94E0215003
:1009C00080409040E1F700C0000087E4CECF8CEF7C
:1009D0008C0F813A98F48C2F0E94341D8111C9CF5D
:1009E0008C2F0E94B31F882329F08C2F0E94532044
:1009F0000E94150D8C2F0E943C20B9CF80E28C0FF5
:100A0000883048F4C77081E001C0880FCA95EAF7C2
:100A10000E94640CACCFEBE5EC0FE33040F4F0E067
:100A2000E45AFE4F808190E00E94471FA2CFC85A2F
:100A3000CB3108F09ECFEC2FF0E0EE0FFF1FEA5D08
:100A4000FE4F808191810E946C1F93CF882309F40F
:100A50004DC0823879F40E942B1F81FF47C089E383
:100A60000E943C200E94150D89E30E9453200E94A1
:100A7000150D0895833859F40E942B1F80FF36C04E
:100A800083E50E943C200E94150D83E5EECF84385B
:100A900059F40E942B1F82FF29C087E40E943C204A
:100AA0000E94150D87E4E1CF9CEF980F913AE8F290
:100AB00090E2980F983050F4877091E001C0990F40
:100AC0008A95EAF7892F0E946A0CD1CF9BE5980F8F
:100AD000933028F490E080E00E94471F0895885AE0
:100AE0008B3120F490E080E00E946C1F08951F93EA
:100AF000CF93DF93182FEB010E949C04209739F4C9
:100B0000812F0E942605DF91CF911F9108958FE9D3
:100B10009FE00197F1F700C000002197EFCF70E050
:100B200060E0893311F460E570E00E947705089574
:100B3000882321F00E94640C0E94150D08958823DB
:100B400021F00E946A0C0E94150D0895B0E0A0E00B
:100B5000ECEAF5E00C94DD286C01D62FC72FFC01E0
:100B60001581068102950F700E945A0CE82E882389
:100B7000F9F0E12E1123E1F08C2F807F803461F0B9
:100B800080E28D0F883008F18C2F807E803221F436
:100B9000D230D8F00023C9F080910C0382FF15C039
:100BA00082E00E94450D0E945A0C91E0E82EE92651
:100BB000BC2EB2949FE0B922FBE0FB15B8F1EB2DFF
:100BC000F0E0E75CF54D0C949D28E12CF1CF0C2F63
:100BD0000F70C07F11F00295007F112399F0002360
:100BE00059F080E28D0F883010F0D11107C0802FAE
:100BF0000E94640C0E94150D8D2F5AC0802F0E94F8
:100C0000740CF8CF8D2F0E942605002379F080E226
:100C10008D0F883010F0D11104C0802F0E946A0C13
:100C200003C0802F0E947A0C0E94150DEB2DE85016
:100C3000FF0B349720F40E941E1F0E943804EE2000
:100C400089F00E94560C80FD0DC0F60115820E94AD
:100C5000500C0E946E08C6010E94B0070E94500C02
:100C60000E947E08CDB7DEB7E9E00C94F9282C2F5E
:100C70002F70F22EC07FC03219F0F29480EFF8226C
:100C8000DD2341F0D130D1F1112309F444C0002318
:100C9000F1F0B2CF80910C0382FD15C0112359F001
:100CA000FF2029F08F2D0E94640C0E94150D80E01A
:100CB0000E949C04BBCF80E00E942605FF2009F41F
:100CC000B5CF8F2DABCF112369F0011104C08F2D4B
:100CD0000E949805ABCF013009F0A8CF8F2D0E945C
:100CE000980CA4CF0111A2CF8F2D0E949F058F2DAC
:100CF0000E94A40C8F2D0E94880C98CF112321F004
:100D0000063008F093CFE3CF053008F08FCF8F2D5A
:100D10000E949F058BCF0023D1F3D93349F43FEFD5
:100D200087EE93E0315080409040E1F700C0000032
:100D30008D2F0E9426057ACF8C2F869586958370FD
:100D400069F0813009F072CF8D2F9C2F93701111B3
:100D500002C080E090E00E946C1F68CF8D2F9C2F16
:100D60009370111102C080E090E00E94471F5ECF97
:100D70008C2F8370A1F5111159CF4D2F42954695B7
:100D80004770440F440F2D2F2F7030E0042E02C007
:100D9000220F331F0A94E2F790E080E0D4FF09C0ED
:100DA0008FE090E002C0880F991F4A95E2F7809586
:100DB0009095C695C695C370822B932BC23049F08F
:100DC00058F4C13019F00E943E0830CF0E94350817
:100DD0002DCF0E9447082ACF0E94320827CF869540
:100DE000112311F08C2F8170882309F41FCF4D2F10
:100DF000429546954770440F440F2D2F2F7030E0D9
:100E0000042E02C0220F331F0A94E2F790E080E024
:100E1000D4FF09C08FE090E002C0880F991F4A9567
:100E2000E2F780959095C695C695C370822B932B5B
:100E3000C23049F058F4C13019F00E94A908F6CE2A
:100E40000E94A008F3CE0E94B208F0CE0E9456087D
:100E5000EDCECF70112329F08C2F0E946E088D2FBC
:100E600037CF8D2F0E949F058C2F0E947E08DECEEB
:100E7000D23F41F160F4D03FB9F0D13F81F011236E
:100E800009F446C00111B8CE8C2F8F711FC0D33F1B
:100E900001F1D43FA1F780910C0382FD24C08C2F77
:100EA0008F71112311F312C0112341F0053008F0A6
:100EB000BDCE8C2F8F710E949008B8CE063008F0FE
:100EC000B5CEF7CF8C2F8F711111CFCF0E946E0846
:100ED000ADCE112329F08C2F8F710E946208A6CE0F
:100EE0000E945D08A3CE112349F0CF718C2F0E9480
:100EF0006E0863E08C2F0E94270D98CE81E00E943F
:100F0000450D023008F492CE82E00E94450D8ECE4F
:100F1000002359F0D93309F00BCFEFEFF7EE23E0C0
:100F2000E150F0402040E1F701CF8C2F8F719DCF31
:100F30000F931F93CF93DF93EC01688179818D81AB
:100F40000E9471098C010E94BB080E943108B801FF
:100F5000CE010E94A605DF91CF911F910F910895B8
:100F6000CF93DF93EC018C81882399F0CE010E940E
:100F7000AD03811111C00E945A0C882351F08D815C
:100F8000882339F080910C0382FF03C082E00E9425
:100F9000450DDF91CF910895CE010E949807CE01B3
:100FA0000E947E03F6CF90E080E00E94471F90E011
:100FB00080E00E946C1F0E94810C0E94150D089514
:100FC0000E946A200E94D30708950E94710C0E941B
:100FD000E007089592959F70963091F058F4925FD3
:100FE0009F70923058F4803F19F030F4883E30F40E
:100FF00081E008959A5FF4CF843FD1F380E00895B3
:10100000883EB0F3813FD1F7F3CFFC012481222346
:1010100039F0808191810E9466090E94EA07089553
:1010200080E00895A6E0B0E0E8E1F8E00C94E42860
:101030002696E2E00C940029A7E0B0E0E2E2F8E0B6
:101040000C94E4282796E2E00C94002908950E946D
:10105000260808950E9427089093070280930602AD
:10106000089508950E942A0808952091060230915B
:101070000702822B932B0E942A08089520910602D2
:1010800030910702822393230E942A080895209119
:10109000060230910702822793270E942A080895AA
:1010A0000E94260808950E94500808950E9453083F
:1010B0009093050280930402089590E080E00E94DE
:1010C0005608089521E030E0A90102C0440F551FE1
:1010D0008A95E2F7CA010E945608089521E030E09F
:1010E00002C0220F331F8A95E2F78091040290918B
:1010F0000502822B932B0E945608089521E030E0D0
:1011000002C0220F331F8A95E2F720953095809117
:10111000040290910502822393230E9456080895A9
:1011200021E030E002C0220F331F8A95E2F7809160
:10113000040290910502822793270E945608089581
:101140002091040230910502822B932B0E945608B5
:1011500008952091040230910502822393230E9476
:1011600056080895209104023091050282279327A2
:101170000E94560808950895262F277091E001C017
:10118000990F2A95EAF723E0769567952A95E1F776
:10119000660F771F660F771FFA01E60FF71F50E003
:1011A00040E0682F70E08191DF0111979B01042ED0
:1011B00002C0369527950A94E2F7217021952827D9
:1011C000292328272C934F5F5F4F4430510559F74F
:1011D0000895A82FA77023E0969587952A95E1F7A3
:1011E000880F991F880F991FFB01E80FF91F50E026
:1011F00040E080E0219130E00A2E02C0369527952C
:101200000A94E2F721703327042E01C0220F0A94BA
:10121000EAF7822B4F5F5F4F4430510559F708952D
:10122000262F953070F48E3060F4682F70E08EE0D9
:10123000989F600D711D112440EE51E0822F0E9495
:10124000BC080895292F953068F48E3058F490E04A
:1012500060EE71E03EE0239F800D911D11240E94FD
:10126000E908089580E00895B0E0A0E0EAE3F9E03D
:101270000C94DD287C0100910402109105028091FC
:10128000060290910702082B192BCFE0D0E0CC2466
:10129000C394D12CBC2EC6010C2E02C0880F991FFE
:1012A0000A94E2F780239123892B49F4219790F740
:1012B000B12C8B2DCDB7DEB7E9E00C94F928B7013E
:1012C0008C2F0E945D10019789F3F3CFCF93DF93AA
:1012D000EC010E943409BE010E945D10DF91CF91A4
:1012E00008951F93CF93DF93EB019091DF01992332
:1012F00039F0CB010E946609DF91CF911F910895CB
:10130000882369F0CB010E943409182F682FCE0181
:101310000E941009BE01812F0E945D10EDCFCB010C
:101320000E942209182FF6CF1F93CF93DF93C0910D
:10133000080217E0809109028C1304C0DF91CF915D
:101340001F910895D0E01C9FF0011D9FF00D112406
:10135000E65FFD4F20813181428153816481758137
:1013600086810E941C082196C770E4CF209142021A
:1013700030914302409144025091450260914602EF
:1013800070914702809148020E941C080895CF93F3
:10139000DF9380914802807F09F04DC08091470221
:1013A000882309F448C0E091080250910902C091D5
:1013B0004302D0914202609144027091450247E09D
:1013C0005E17C9F18E2F90E0E49FF0011124E65FD3
:1013D000FD4F2481222391F1489FF001499FF00D98
:1013E0001124DF01A65FBD4F11962C9111972C138C
:1013F00025C02C912D1322C015962C9115972111E3
:101400001DC012962D913C91261B370B283C3105AF
:10141000A8F4809148028F70806180934802E05F59
:10142000FD4F80818F708061808382E492E00E9412
:10143000B0070E949409DF91CF910895FC01319685
:10144000E770BECF482F209108029091090257E023
:10145000291302C080E0089530E0529FF001539FAD
:10146000F00D1124E65FFD4F8181681306C0808175
:10147000481303C085818111EECF2F5F3F4F277046
:10148000E7CFA4E1B0E0E7E4FAE00C94DA288C01BD
:1014900086E0F801DE011F9601900D928A95E1F732
:1014A000F8018481E58092E4A92E92E0B92E909112
:1014B000460291111FC08823D1F0EE20A9F0C80187
:1014C0000E940508F82E882379F087E0F801D501FD
:1014D00001900D928A95E1F7C5010E9493040E9444
:1014E000C7090E94B6095FC0C8010E94B007FF2467
:1014F000F39459C0C080D18082809380F0904702DD
:101500002091440230914502A401421B530BFF205D
:1015100009F4F9C0483C510508F0A7C0882309F434
:1015200042C09091430280914802282F207F09F009
:101530005CC09D1116C090914202C91212C0E11008
:101540004EC08F708061809348020E94B60982E489
:1015500092E00E94B00780914802F8018683F12C46
:1015600022C0E1103CC06D2D8C2D0E94220A6D2DF1
:101570008C2D0E94220AE82E8111F1CFCF86D88AC5
:101580008F8598890E946609292F22952F70243013
:1015900078F49F702230A8F09923B9F0F801968171
:1015A000907F99F4FE2C8F2D6496ECE00C94F62835
:1015B0002A5F2F70223068F0C8010E94B007EF2C1C
:1015C000F1CF992311F0882369F3805E883050F3BE
:1015D000F3CF803F38F3815F833070F7E3CF8091A2
:1015E0004802816080934802BACF9D1113C0909148
:1015F0004202C9120FC0E1100DC08683C8010E94CB
:10160000B00787E0F801A2E4B2E001900D928A955C
:10161000E1F767CFC8010E940508882309F464CF69
:10162000EE2009F461CF80914802803288F0209149
:10163000420230914302398728879B868A8690919F
:1016400046029C871D868E87CE0108960E94B007B1
:1016500087E0F801A2E4B2E001900D928A95E1F7EB
:101660000E94C7090E94B60942CF90914802292FD3
:10167000207FA1F4682D9A8A898AA6017A899E2DF5
:101680000E94120882E492E00E94B00787E0F50110
:1016900011928A95E9F70E94B60961CF882309F46F
:1016A00082CF809143028D1110C080914202C812F6
:1016B0000CC0E1100AC09683C8010E94B00787E001
:1016C000F50111928A95E9F76ECFC8010E940508CD
:1016D000882309F409CFEE2009F406CF809148024F
:1016E000803208F4B5CF20914202309143023A8310
:1016F00029839C828B82909146029D831E828F83D8
:10170000CE010196A3CF483C5105B8F5882309F4D2
:10171000EECEFE2CEE2009F4E7CE809143028D112F
:101720001EC080914202C8121AC08091480280FDFA
:101730000DC0982F907F51F08683903F09F45ECFC3
:10174000982F907F905F8F70892B57CF87E0F8019B
:10175000A2E4B2E001900D928A95E1F724CFC8018E
:101760000E940508811174CF8091480281608093A6
:101770004802C8010E94B00716CF682D9A8A898A4C
:10178000A6017A899E2D0E94120887E0F501119228
:101790008A95E9F7A6CEAEE0B0E0E1EDFBE00C946F
:1017A000E328288739874A875B876C877D878E8700
:1017B000CE0108960E94410A8823B1F06C85662309
:1017C00041F0288539854A855B857D858E850E9417
:1017D0001C0817E0809108029091090289133DC00E
:1017E0002E96E3E00C94FF2887E0FE013896DE0198
:1017F000119601900D928A95E1F78C85882349F323
:101800002091090230E0C901019687709927409123
:1018100008024817190699F097E0929FD001939F0C
:10182000B00D1124A65FBD4FFE01319601900D92BF
:101830009A95E1F7809309020E949409CACF0E9409
:10184000E507109209021092080287E0E2E4F2E054
:10185000DF011D928A95E9F7BCCF819FC001112459
:10186000865F9D4F0E94410A882309F4B9CFE09119
:1018700008021E9FF0011124E65FFD4F2081318197
:10188000428153816481758186810E941C08809108
:10189000080290E0019687709927809308029ACFFA
:1018A0008091710286958695869508958091710242
:1018B0008770089590917102977081E009F480E03B
:1018C000089580919D02089590919D02892B8093A7
:1018D0009D020895809590919D02982390939D027A
:1018E000089510929D02089590919C02892B8093F7
:1018F0009C020895809590919C02982390939C025D
:10190000089510929C02089508950E94840C0895F1
:1019100090917202292F282331F08095892380939A
:1019200072020E94850C089508950E94940C0895F7
:1019300090917302292F2823281729F0982B909330
:1019400073020E94950C089590917302292F282309
:1019500031F080958923809373020E94950C08953D
:1019600080917302882329F01092730280E00E9414
:10197000950C0895CF93C0919D0280919C02C82B35
:1019800080917302882331F0C82B0E94911F81112E
:101990000E94B00C8C2FCF910895CF93DF93C0910C
:1019A0000601D09107010E94BA0C8883C0910601FC
:1019B000D091070148E050E069E672E0CE010E9454
:1019C000AA29892B59F088E0FE01A9E6B2E001902E
:1019D0000D928A95E1F7CE010E942E1FDF91CF91E3
:1019E0000895CF93DF93C0910401D09105010E9427
:1019F000BA0C8983C0910401D091050140E250E006
:101A000069E472E0CE010E94AA29892B59F080E294
:101A1000FE01A9E4B2E001900D928A95E1F7CE01B2
:101A20000E94391FDF91CF9108958091250188236D
:101A300039F080910B0387FF03C00E94F10C0895D9
:101A40000E94CD0C089508950E94230D0895909151
:101A50000C0392FF11C098E0899F90011124622B22
:101A6000609371020E946E0880917102869586953E
:101A700086950E94240D08950E946E080895109284
:101A8000710280E00E94240D08959091710280956A
:101A9000892380937102282F277069F4891759F0E0
:101AA00090910C0392FF07C08695869586950E94BB
:101AB0007E080E943F0D089590910C0392FB22270F
:101AC00020F9281769F080FB92F990930C0380911C
:101AD0000B0390910C030E94A40D82E00E94450D1F
:101AE000089580910C0382FB882780F991E0892773
:101AF0000E945C0D089581E00E945C0D089580E0D5
:101B00000E945C0D08956FEF7FEF90E080E00E94EF
:101B1000022A089590E080E00E94CE2921E0863ECE
:101B20009E4F09F020E0822F089582E090E00E940D
:101B3000C029089583E090E00E94C029089584E0C0
:101B400090E00E94CE290895BC0184E090E00E94BC
:101B5000022A0895AB01BC018FE090E00E94F629B3
:101B60000895AB01BC0183E190E00E94F62908953D
:101B700060E070E0CB010E94B10D089560E070E07C
:101B8000CB010E94AA0D0E94B80D0895A8E0B0E014
:101B9000ECECFDE00C94E42866EE7EEF90E080E053
:101BA0000E94022A60E082E090E00E94E42981E045
:101BB00090E0909307028093060261E083E090E05A
:101BC0000E94E42960E074E184E090E00E94022A2F
:101BD00060E086E090E00E94E42960E087E090E029
:101BE0000E94E42940E050E0BA0188E090E00E94C1
:101BF000F62960E084E290E00E94E42960E087E159
:101C000090E00E94E42960E08CE090E00E94E429EA
:101C100060E08DE090E00E94E42919821A821B8224
:101C20001C821D821E821F82188648E050E068E1F7
:101C300070E0CE0101960E94D42940E050E0BA0144
:101C400080E290E00E94F6290E94BE0D2896E2E014
:101C50000C9400290E94C60D0895682F8EE090E034
:101C60000E94E4290895A6E0B0E0E9E3FEE00C94C8
:101C7000E2280E942A218C0180919E0290919F026D
:101C80008017910781F019821A820E942A21682FF9
:101C900049815A81792F80E090E00E94630410937B
:101CA0009F0200939E022696E4E00C94FE280E9478
:101CB00036216093AE027093AF028093B00290938E
:101CC000B1026093AA027093AB028093AC0290932E
:101CD000AD020895089508950E946A0E089508952A
:101CE0000E946F0E089583E591E10E94E4120E9424
:101CF0006B0E0E946C0E089581E008950E947C0E88
:101D000008950E947C0E0895089508950E94840EFF
:101D10000E94850E08950E948A0D811102C00E94C2
:101D20002A0E0E94950D8093B2020E949F0D9093FF
:101D30000C0380930B030E94BF1C0E949A0D90E03D
:101D40000E94320880910402909105020E9453087B
:101D500008950E9421210E9423120E948B0E0E944E
:101D600037040E94641C0E94C11A0E9444190E94F8
:101D7000700E0895A6E0B0E0E0ECFEE00C94D828E8
:101D80000E947E0E81110CC00E94330E0E94201A08
:101D90000E94631C0E944A042696EEE00C94F428EC
:101DA0000E94391220EA822E22E0922E640110E075
:101DB000F601E190F1906F01812F0E945D111F5F8C
:101DC000153009F44BC0E816F90691F38091B20280
:101DD00081FD0E9466110E94810E782E10E066241B
:101DE0006394812F0E945D117C01F401A190B19058
:101DF0004F018A159B0561F100E0CC24C394D12CDE
:101E0000AE24BF24C5018C219D21892BC1F07720F0
:101E1000B1F009831A830E942A219C838B836D82EF
:101E200021E0C7018C219D21892B09F420E0498103
:101E30005A816B817C818D81922F0E9463040F5F98
:101E4000CC0CDD1C0E30F1F6F4013297F182E08209
:101E50001F5F153031F60E94570E98CFE816F9062D
:101E600009F0B4CF91CF1F93CF93DF930E946210FC
:101E7000EC01C11580E5D807F0F5C11580E4D8075D
:101E800008F09CC0C03ED10520F5CD3CD10508F03E
:101E900082C0C83AD10578F4C53AD10508F073C0BC
:101EA000C130D10519F1209709F1C430D105F0F402
:101EB000D0E0C0E01BC0C33CD105D0F7C85AD0E089
:101EC000CC0FDD1FC15ADE4F0990D881C02DD464DC
:101ED0000DC0C11580E2D80708F0D1C0C11581E05E
:101EE000D80708F05AC0C83ED10510F7CE01DF91DF
:101EF000CF911F910895C03682E5D80718F5C034F8
:101F000082E5D80708F06BC0C03282E5D80708F038
:101F10005FC0C11582E5D80708F497C02C2F26951D
:101F2000269580E2289F900111248C2F8370C1E0B8
:101F3000D0E002C0CC0FDD1F8A95E2F7C22BD32B75
:101F4000DD68D4CFC03A82E5D80760F4C03882E5B6
:101F5000D80708F459C0CF71D0E0DC2FCC27C46F6C
:101F6000D06AC4CFC03C82E5D80708F462C0C03E46
:101F700082E5D80708F09CCFDC2FCC27CC27DF7177
:101F8000C06FD06AB3CFC55AD0E0CB56DE4FC88100
:101F9000D0E0D064ABCFD065A9CF8D2F0E940411C3
:101FA000182FCE0199270E946210C12FD0E0DC2F9C
:101FB000CC27CC27DF71C82BD92B98CFCE019927FE
:101FC0000E946210CC27DF70C82BD92BD06A8ECF2D
:101FD000CF71D0E0DC2FCC27C16FD06A87CF2C2FF8
:101FE00026952695277080E2289F900111248C2F3A
:101FF0008370C1E0D0E002C0CC0FDD1F8A95E2F70C
:10200000C22BD32BDC6872CF2C2F269526952770F8
:1020100080E2289F900111248C2F8370C1E0D0E0D2
:1020200002C0CC0FDD1F8A95E2F7C22BD32BDA68F2
:102030005DCF8C2F8F710E940411C82FD0E0DC2F50
:10204000CC27CC27DF71D06251CF8C2F8F710E94AB
:10205000041155E0D695C7955A95E1F7CF70D0E0B9
:10206000DC2FCC27282F30E084FF05C044E0220F6E
:10207000331F4A95E1F7C22BD32BD06937CF8D2F71
:102080008F710E940411182FCE0199270E946210AF
:10209000C12FD0E0DC2FCC27CC27DF71C82BD92B68
:1020A000D2CF462F753030F46E3020F4672F0E9467
:1020B0002503089590E080E008950E9451100E9449
:1020C000330F089582389105B9F1B0F48133910549
:1020D00009F47DC048F48932910509F46DC08A3253
:1020E000910509F47BC008958533910509F45FC01B
:1020F0008933910509F10895833E9105D9F138F4AA
:10210000803E910529F1823E910579F10895863E40
:102110009105D9F1873E910509F43EC0843E9105B1
:1021200041F520910C0321FF24C080910B0384FD15
:1021300019C087EE90E0089520910B03237009F0F9
:102140005AC020910C0323FF14C089E290E0089547
:1021500020910B0320FD38C030910C0330FF09C0E3
:1021600024FF43C090E080E0089520910B0322FDFE
:10217000F7CF089520910B0322FD3AC030910C0354
:1021800030FD39C024FFF5CFEDCF20910B0323FFA5
:10219000F0CF24FDE7CFCDCF20910B0323FD2EC040
:1021A00030910C0331FFEECF84EE90E00895209142
:1021B0000B0325FFDECFC9CF20910B0325FD21C0E6
:1021C00020910C0323FFD5CF89E390E0D2CF20915B
:1021D0000B0326FFCECF8AE290E0089520910B03F7
:1021E00026FFC7CF81E390E0089583EE90E0089545
:1021F00082EE90E0089580EE90E0089586EE90E003
:10220000089585E390E0089590910B0392FF10C02C
:1022100041E0282F2471243009F040E031E0282FDC
:102220002871283009F030E0431711F02CE08227A4
:1022300093FF10C041E0282F2471243109F040E0C1
:1022400031E0282F2871283109F030E0431711F0D0
:102250002CE0822730910C0330FF10C051E0282F72
:102260002171213009F050E041E0282F28712830F9
:1022700009F040E0541711F029E0822731FF10C027
:1022800041E0282F2171213109F040E031E0282F71
:102290002871283109F030E0431711F029E0822736
:1022A00094FD877E089580E0089508950E94551159
:1022B000089508950E9459110895E82FF0E0EE0F57
:1022C000FF1FE95EFC4F808191810895089580EAA7
:1022D0008A95F1F7089500C008950E946711089546
:1022E000F894E82FE295EF70F0E031A1282F2F70DD
:1022F00081E090E001C0880F2A95EAF7982F909529
:10230000932391A392A1892B82A3789408950F938C
:102310001F93CF93DF93C8E9D1E089918F3F11F0EC
:102320000E94701181E0C63AD807B9F7C6EAD1E039
:102330000BEA11E089918F3F11F00E9470110C1788
:102340001D07C1F7DF91CF911F910F9108958F92D3
:102350009F92BF92CF92DF92EF92FF920F931F93C3
:10236000CF93DF93D82EE92EF62E8A01C62FD0E028
:10237000C856DE4F28812F3F09F453C0F894E22F4E
:10238000E295EF70F0E031A12F7081E090E001C0A4
:10239000880F2A95EAF7932F982B91A392A1809505
:1023A000892382A378940E946B1186EA882E81E0AB
:1023B000982EED2DFE2DBF01665F7F4FE12C680149
:1023C000C094D094D401BD904D0181919191AF0101
:1023D00042505109BFEFBB1681F12B2D22952F7072
:1023E00030E0D90190962C9130E0BB2DBF7002C037
:1023F00035952795BA95E2F720FD1FC0802B912BCC
:10240000DA018D939C93EE24E3946E177F07D1F647
:1024100088818F3F11F00E9470116E2D8F2D0E94C8
:102420006D11DF91CF911F910F91FF90EF90DF9091
:10243000CF90BF909F908F9008958C219D21DA01BD
:102440008D939C93E2CF0E9487118AE0E7E1F3E04D
:10245000DF01982F1D929A95E9F7EDE0F3E0DF0197
:102460001D928A95E9F785E00E948D120E9456110F
:102470000895CF92DF92FF920F931F93CF93DF9334
:10248000CDB7DEB72A970FB6F894DEBF0FBECDBF2B
:102490008E010F5F1F4F8AE0F80111928A95E9F7CC
:1024A000F12CCC24C394D12CA6016F2DC8010E941D
:1024B000A711F394CC0CDD1CFEE0FF12F5CF4AE02F
:1024C00050E0B8018DE093E00E94AA2921E0009736
:1024D00009F420E0892B41F08AE0F801ADE0B3E097
:1024E00001900D928A95E1F745E067E173E08DE098
:1024F00093E00E948E12182F0E945A11812F2A9663
:102500000FB6F894DEBF0FBECDBFDF91CF911F9104
:102510000F91FF90DF90CF9008950895B0E0A0E074
:10252000E4E9F2E10C94DE286C017B01042FC22F58
:10253000222379F081E08093B5020E942A219093B2
:10254000B4028093B30280E0CDB7DEB7E8E00C942C
:10255000FA28D091B502DD23B1F38091B3029091B6
:10256000B4020E944221059770F310E0000F111F82
:10257000A801B601C7010E94AA29892B31F0A80140
:10258000B601C7010E94B729CD2F1092B5028C2F3A
:10259000DBCF0E94FF220E94A90E0E940C23089507
:1025A0000E9411230E94BA0E0E942B2308950E94BC
:1025B000C3200E94E5220E94730E0E94C9120E944D
:1025C000D0120E94860EFBCF9093D9018093D80140
:1025D0000895EF92FF920F931F93CF93DF93EB0138
:1025E000E82FD1110EC0442321F0F0E0E659FC4F52
:1025F000E4916E2F7E2F8E2FCDB7DEB7E6E00C94E0
:10260000FC280D2F10E0282F30E0442329F0265914
:102610003C4FF901249130E0F6E0CF9FC001112436
:10262000EFEFF0E0BF010E945328AB018C2F90E048
:10263000880F991FA5E5A49FB001A59F700D1124D7
:10264000861B970B982F990F980FBF01601B710B7A
:10265000629FD001639FB00D729FB00D11248B2F2C
:102660009D9FB0011124672F7727EF01C61BD70B61
:10267000BE01629FE001639FD00D729FD00D1124B7
:102680007F01E91AF108E09EB001E19E700DF09E15
:10269000700D1124672F7727E61BF70BE29F80014F
:1026A000E39F100DF29F100D1124E12F722F423085
:1026B000510599F048F44115510569F04130510533
:1026C00081F0EB2F8D2F07C04430510569F080F069
:1026D00046305105B1F76E2F8FCFE22F7B2F812F20
:1026E000FACFE22F7D2FF7CFEB2F822F712FF3CF71
:1026F0007B2F822FED2FEFCF41E00E94E91208954A
:1027000008950E947C130895CF93DF93762FE901FB
:10271000682F842F0E948113798368838A83DF91D5
:10272000CF91089580912103982F9C7F29F4837085
:1027300084608093210308958C3AE8F38370886A5B
:10274000F8CFB0E0A0E0E7EAF3E10C94DE2888E0FF
:1027500090E00E94C8296B017C0184E290E00E9415
:10276000C029282F30E040E050E060E070E080E0D9
:1027700090E000E20E940B29B22FA32FF42FE52F47
:10278000D62FC72F97018601BC29A12BFE295E2FCA
:10279000532B2B2F3A2F4F2F6D2F7C2FCDB7DEB71A
:1027A000E8E00C94FA28B0E0A0E0E9EDF3E10C9445
:1027B000DA2849015A016B017C010E9492138401BD
:1027C000A4016A2D7B2D88E090E00E94F6299401F7
:1027D0004A2D5B2DB601C70100E20E942629622F17
:1027E00084E290E00E94E429CDB7DEB7ECE00C94DF
:1027F000F628E1E2F3E085E0808311828FEF8283A7
:1028000083831482758125E030E04FEF5FEF60E055
:10281000868197810E94D31308958091210380FFC0
:1028200003C086958695089580E0089590912503CC
:10283000933018F49F5F90932503882391F02091A3
:10284000210330912203409123035091240360918E
:1028500025037091260380912703909128030E94FD
:10286000D313089581E00E941614089590912503D2
:10287000992319F0915090932503882391F020918A
:10288000210330912203409123035091240360914E
:1028900025037091260380912703909128030E94BD
:1028A000D313089581E00E943614089560910C01BD
:1028B0008091210380FF0FC070E080910B0123E025
:1028C000829FC0011124E091D601F091D701875D6C
:1028D0009C4F0995089580910D0190910E0123E080
:1028E000829FF0011124E75DFC4F891728F71182C0
:1028F000108212828F5F3396F8CF9091210390FF60
:102900000EC090910D0120910E0133E0939FF001D4
:102910001124E75DFC4F921718F00E945614089599
:102920008183608342839F5F3396F5CFA3E0B0E05D
:10293000ECE9F4E10C94E4289091210390FF0AC0A3
:102940009E012F5F3F4F0E9484134B8169818A81D2
:102950000E947D142396E2E00C940029CF93DF932C
:10296000EC01EC81F0E0EB59FD4F4491E1E2F3E042
:10297000628181810E9496148C818F5F8C83DF91AC
:10298000CF910895CF93DF93EC01E1E2F3E043812F
:1029900062818C810E9496148C818F5F8C83DF9181
:1029A000CF910895A3E0B0E0E8EDF4E10C94E228C3
:1029B0008C018091B60281110AC09E012F5F3F4FAA
:1029C0004FEF6FEF0E9484138A818093B602F80163
:1029D0006481613069F08091B60240E0662361F065
:1029E00040E0623011F44091B60280E060E004C043
:1029F0006091B60240E080E00E947D14F80184817D
:102A000090E0019663E070E00E946728848323963B
:102A1000E4E00C94FE28A3E0B0E0E1E1F5E10C94E1
:102A2000DD28082FD62EF42EC22E9091210390FF80
:102A30002FC0E92FE695E695AE2FB0E0A555BE4F25
:102A40008C918093F2029C7F943031F59E012F5F30
:102A50003F4F802F0E9484134B8169818A810E949D
:102A60007D1400932203D0922303F0922403CC2000
:102A700079F0209121036091250370912603302F76
:102A80004D2D5F2D80912703909128030E94D31331
:102A90002396E9E00C94F928823019F4F09024038D
:102AA000E0CF863019F400912203DBCF8930D9F3CF
:102AB0008931B9F6E9516E2F6170B62EE695F0E0D6
:102AC000EB59FC4F1491E12C60910F01E61618F0C0
:102AD0000E945614C6CFE19EC001112470E00E94EE
:102AE0005328802FB11014C0860F20910D01622F42
:102AF0006E0D7727771F9B01220F331F260F371F7D
:102B0000275D3C4F4F2D6D2D0E948413E394DCCF45
:102B1000861BEBCFE1E2F3E09181282F43816281B4
:102B20008CE0890F0E940B15089581E00E948A15A0
:102B30000895E1E2F3E09181282F4381628184EFDF
:102B4000890F0E940B15089581E00E949915089540
:102B5000E1E2F3E062812CE0620F08F46FEF282FCE
:102B6000438181810E940B15089581E00E94A81580
:102B70000895E1E2F3E062812CE0621B08F460E07A
:102B8000282F438181810E940B15089581E00E94C6
:102B9000B9150895E1E2F3E043812CE0420F08F417
:102BA0004FEF282F628181810E940B15089581E0EB
:102BB0000E94CA150895E1E2F3E043812CE0421B34
:102BC00008F440E0282F628181810E940B1508954E
:102BD00081E00E94DB15089520E00E940B15089506
:102BE000EF92FF921F93CF93DF93EC0110E0EE245E
:102BF000EA94F12C60910F01161770F00E945614A0
:102C00009A818C8190FF27C08F5F8C83DF91CF9159
:102C10001F91FF90EF90089520910D01422F410FD9
:102C20005527551FCA019A01220F331F280F391F3C
:102C3000275D3C4F70E0C7010E946728962F8C816A
:102C40004091240360912303199F800D11240E9459
:102C500084131F5FCFCF8150D8CFB0E0A0E0E3E373
:102C6000F6E10C94DC28FC0182810FEF80FF01E08B
:102C700010E04AE0A42E80910F01181798F00E94EE
:102C800056148091B802013009F04FC0811102C082
:102C900080910F0181508093B802CDB7DEB7EAE092
:102CA0000C94F828C0910D01C12ED12CCC0DDD2D36
:102CB000D11DCE01880F991FC80FD91FC75DDC4FEA
:102CC000198218821A8234E0E32EF12CB12C809103
:102CD000B8028B0D8B301CF16A2D0E944528892F7C
:102CE000082E000C990BC816D90691F48091240384
:102CF0008E9DA0018F9D500D11245595479555959A
:102D000047959E0160912303809122030E948413C2
:102D1000B00EF1E0EF1AF108D1F61F5FACCF87FFDC
:102D2000DFCF90910F01890FDBCF90E0019660918A
:102D30000F0170E00E946728AECF0F931F93CF93CF
:102D4000DF9380910D0190910E0123E0829FF001AD
:102D50001124E75DFC4F891740F1C0E0D3E060919A
:102D60000F01C61740F10E9456142091090180916D
:102D7000B702820F8093B70290910A01920F90934D
:102D80000A01191654F4082E000C990B40910F01FA
:102D90004150550B841795071CF02195209309018C
:102DA000DF91CF911F910F910895118210821282AD
:102DB0008F5F3396D0CF0C2F10E070E0C8010E94D7
:102DC000672820910D01820F482F50E02091B70213
:102DD000022E000C330B02171307BCF020910A01DE
:102DE000022E000C330B201731077CF08D9F9001D1
:102DF0001124275D3C4F409124036091230380916F
:102E000022030E948413CF5FAACFFA01EE0FFF1FA7
:102E1000E40FF51FE75DFC4F118210821282F3CFA1
:102E2000B0E0A0E0E6E1F7E10C94DA28EC014C8197
:102E3000042F10E09801D8010E94AB289B01AC013F
:102E40000E94C1284B015C01E0E2F0E0E01BF10BC5
:102E5000A5E5B0E0AC019B010E94C1286B017C019B
:102E60009F01DF010E94A3289B01AC010E94CC2896
:102E70009B01AC01280D391D4A1D5B1DC701B60120
:102E80000E947B28F22E822F90E039E23F1520F13C
:102E900043E0249F9001112435952795122F10951A
:102EA00000E085E5E82EEF1880910F01081718F172
:102EB0000E9456149C8181E0992319F0903219F4F4
:102EC0008FEF8093080180910801890F8C83CDB723
:102ED000DEB7ECE00C94F62825E530E0B901681B7C
:102EE000790B9B01220F331F260F371F37FFD4CFDB
:102EF0002F5F3F4FD1CF8E2D01FD8F2D20910D01E2
:102F0000622F600F7727771F9B01220F331F260F39
:102F1000371F275D3C4F412F609123030E9484138C
:102F20000F5FC2CF0F931F93CF93DF93EC0110E09D
:102F300000E090910F019017110609F06CF40E94C7
:102F400056148C8190E00196817099278C83DF91D3
:102F5000CF911F910F91089520910D01A801420F6B
:102F6000511D9A01220F331F240F351F275D3C4F3F
:102F70004C8160912303809122039695901711064E
:102F800051F04CF0442349F0409124030E948413F3
:102F90000F5F1F4FCECF4423B9F340E0F7CFB0E02F
:102FA000A0E0E5EDF7E10C94D628FC0162804480B6
:102FB00081E08483E5E6F2E07490E4EEF2E0E491EF
:102FC000C0912403C695C158D0E0CC0FDD1FCD2F92
:102FD000DD27812C75E0972EAA24AA94B12C5524C4
:102FE0005A94E719EE2EF12C80910F01881638F0D3
:102FF0000E945614CDB7DEB7E0E10C94F228C82C3D
:10300000D12C82E0861568F09C9CF0019D9CF00D0F
:103010001124E754FD4F8091220380838091230384
:103020008183411023C09C9CF0019D9CF00D1124D4
:10303000E754FD4F1382128220910D01C601820FC9
:10304000911D9C01220F331F280F391F275D3C4F14
:103050009C9CF0019D9CF00D1124E754FD4F428192
:10306000618180810E9484138394BECF9C9C8001E7
:103070009D9C100D112407541D4FF8018381882356
:10308000F1F081508383859DC0011124648170E03B
:103090000E945328FB01FF27EB59FD4F8491E82F35
:1030A000E719E59DC0011124B7010E9453288091C2
:1030B0002403689FB0011124F8017283BDCF0E94E0
:1030C0008D29B5010E9467288C179D070CF0B4CF9D
:1030D000F2E0F61598F40E948D29B5010E94672848
:1030E000F80180830E948D29209123032695622F69
:1030F00070E00E946728280FF80121839C9CF00152
:103100009D9CF00D1124E754FD4F12828091240301
:10311000893C58F088EC9C9CF0019D9CF00D11249A
:10312000E754FD4F8483838387CF8431A0F784E104
:10313000F2CFE1E2F3E020812E7F208331814281D2
:10314000538164817581868197810E94D313109287
:10315000F3020E94561408956091210366956695C6
:1031600070E04BE050E080E191E00E949D29892BC6
:1031700019F481E08093F3020E942A219093EC02DB
:103180008093EB0208959091210390FF34C09370D7
:10319000811132C0946090932103662391F02091B5
:1031A0002103309122034091230350912403609125
:1031B00025037091260380912703909128030E9494
:1031C000D313609121036695669570E04BE050E063
:1031D00080E191E00E949D29892BB1F01092F302C9
:1031E00081E08093EE02409124036091230380915B
:1031F00022030E94EC1508958B3210F0986ACBCF11
:10320000880F880F982BC7CF0E94AC18E9CF682F82
:10321000909121039695969581E0890F8B3208F065
:1032200081E00E94C318089581E00E940719089563
:10323000682F90912103969596958FEF890F09F449
:103240008AE20E94C318089581E00E941819089527
:1032500061E00E94C3180895E1E2F3E0808181609B
:103260008083869586950E94281908958091210370
:1032700080FF03C00E94991808950E942C19089598
:1032800060E00E94C31808958091F102811137C057
:103290000E94A11320932103309322034093230320
:1032A0005093240360932503709326038093270390
:1032B000909328032C7FA1F40E94F9130E94A1137C
:1032C000209321033093220340932303509324033C
:1032D000609325037093260380932703909328031C
:1032E0000E9492131092F3028091210380FF04C088
:1032F000869586950E94401981E08093F102089599
:103300000F931F93CF93DF938091F3028823C1F132
:103310008091F202E0912103E695E695E81BE093A7
:10332000ED02823091F5F0E0EF59FD4FE491CE2FA0
:10333000D0E00EEA14E18091EE02882361F0109251
:10334000EE020E942A219093EC028093EB021092ED
:10335000F0021092EF020E942A21E091EB02F0911C
:10336000EC028E1B9F0B8F3F9F4750F4EC0FFD1F0D
:10337000F093EC02E093EB028BEE92E0F8010995FA
:10338000DF91CF911F910F910895863049F4F0E0BD
:10339000E25AFD4FE491CE2FD0E002EC14E1CBCF06
:1033A000893051F4E695F0E0E55AFD4FE491CE2FD7
:1033B000D0E000EF15E1BFCF8F3051F4E695F0E09B
:1033C000E85AFD4FE491CE2FD0E00DE216E1B3CFE5
:1033D000853149F4F0E0EB5AFD4FE491CE2FD0E077
:1033E0000DE916E1A8CFC8E2D0E000E117E188318D
:1033F00009F4A1CF833239F4E3E5F2E0C591D49129
:1034000002ED14E198CFC4EFD1E002E917E1843274
:1034100009F491CFC0EDD7E000E813E1853209F05F
:103420008ACF8E2F63E00E943928E92FF0E0E05B1D
:10343000FD4FE491CE2FD0E00FEC17E17CCF089543
:103440000E9480190895FA01811101C0FB010995BC
:103450000895CF93DF93C82FD62F0E940D148C1799
:1034600048F00E940D148D1728F40E941419DF9162
:10347000CF9108958C2F0E942819F9CF1F93CF93D5
:10348000DF93EC01FB011581111110C00E94610C4A
:103490008272FE01E052F847E531F10508F05EC0A6
:1034A000EB5BF54D0C949D280E943619812FDF911E
:1034B000CF911F91089544E259E164E179E10E94BE
:1034C000231AF4CF44E159E164E279E1F8CF44EA08
:1034D00055E165E975E1F3CF45E955E164EA75E148
:1034E000EECF46EC55E165EB75E1E9CF45EB55E1F3
:1034F00066EC75E1E4CF48EE55E167ED75E1DFCFAD
:1035000047ED55E168EE75E1DACF42E554E162E35B
:1035100074E1D5CF42E354E162E574E1D0CF81E0BC
:103520000E942819C3CF65E082E00E94291ABECF0D
:1035300068E086E0FACF6EE089E0F7CF64E18FE0E3
:10354000F4CF67E185E1F1CF88E1EACF62E289E17A
:10355000ECCF83E2E5CF6AE285E2E7CF11E0A6CFC8
:1035600086E090E00E94C0290895682F86E090E0F0
:103570000E94E429089585E3809347030E94B51AC9
:1035800008950E94B01A8093470382FF0E94BB1ADD
:1035900080914703883320F08770806380934703CE
:1035A00090914703892F817090FF04C0892F8695E1
:1035B000869586950E94C21B089580914703982F97
:1035C000969596959695963040F49F5F990F990F32
:1035D000990F8770892B80934703809147038160FF
:1035E000809347030E94B51A80914703869586957C
:1035F00086950E94C21B089580914703982F987F5B
:1036000079F0885080934703887F91E009F490E037
:103610008091470390FB80F9809347030E94B51A7D
:10362000809147038695869586950E94C21B0895D2
:103630008091470380FD13C08160809347038130F0
:1036400019F489E080934703809147030E94B51ADB
:10365000809147038695869586950E94C21B0895A2
:103660008091470380FF08C08E7F809347030E94AC
:10367000B51A80E00E94C21B08958091470380FF25
:1036800003C00E94301B08950E94181B089590915A
:103690004703892F8695869586958F5F8F719770E2
:1036A0008730E0F4880F880F880F892B80934703B9
:1036B00080914703887F91E009F490E0809147036F
:1036C00090FB80F9809347030E94B51A80914703CD
:1036D0008695869586950E94C21B08959093470310
:1036E000E7CF873008F086E0909147039770282F46
:1036F000220F220F220F922B90934703987F21E0F5
:1037000009F420E09091470320FB90F99093470340
:103710000E94C21B08950E94711B809147030E9462
:10372000B51A08959C01FB018581882349F1223057
:10373000F8E73F07F9F040F42115E8E73E0769F0A4
:103740002130384779F00895243098E7390779F027
:1037500058F02530384789F0089586E00E948B1B89
:1037600080E0089580E0FACF0E94FC1AF9CF0E9411
:10377000DD1AF6CF0E943D1BF3CF0E94471BF0CF0E
:1037800081E008958F929F92AF92BF92EF92FF9245
:103790000F931F93CF93DF938730B0F5811135C01E
:1037A00090918000977F90938000A0918600B091C7
:1037B0008700282F30E00E94AB2826E030E040E070
:1037C00050E00E947B2889019A01809186009091A7
:1037D00087006CE070E00E94532860177107C8F002
:1037E000C80169E070E00E94532870938D006093D7
:1037F0008C00DF91CF911F910F91FF90EF90BF90C0
:10380000AF909F908F90089586E09091800098608F
:10381000CACF8091860090918700E0908600F0905A
:103820008700E0918600F0918700C6E0D0E0BE01FD
:103830000E945328060F171F211D311D48015901F1
:1038400085E0880C991CAA1CBB1C8A95D1F7C7017E
:10385000BE010E9453289F0150E040E0260F371F11
:10386000411D511DC501B4010E947B2849015A0127
:10387000E0918600F0918700CA01B9010E942928D1
:103880009B01AC01DF010E94C1289B01AC01C50175
:10389000B4010E9429282FE0969587957795679522
:1038A0002A95D1F7009186001091870030E020E042
:1038B000061717072807390708F097CF6091860089
:1038C0007091870092CF0895279A2F988AE080936D
:1038D000800089E1809381008FEF9FEF90938700B4
:1038E000809386000E94C11A0895879A41B34F774A
:1038F00051B35068EFB7F8949B01220F331F260F86
:10390000371F280F391F2817390741F4EFBF8FE5FC
:1039100094E00197F1F700C000000895DC016D917B
:10392000CD0178E051BB000000C067FF41BB660FCE
:10393000000000C000C000C041BB00C07A9591F7F4
:10394000E2CF0E94830D089580E00E945D11817096
:1039500008950E9439122FEF86E791E021508040B0
:103960009040E1F700C000000E9439120E94A41CA0
:10397000882321F00E94A11C0E94752108950E94B5
:10398000A91C0895EBEFE80FEF3308F066C0F0E0F4
:10399000E65AF54D0C949D280E942A0E81E0089568
:1039A0008091B202807F8093B20281E08093F40222
:1039B00008950E94A103F2CF9091B202892F8E7FC9
:1039C00090FF81608093B20280FDE8CF817F809379
:1039D000B202E4CF9091B202892F8D7F91FF826075
:1039E0008093B20281FFDACF8091B2028160EFCF83
:1039F0009091B202892F8B7F92FF84608093B202F4
:103A000082FDF2CFCBCF9091B202892F877F93FFB7
:103A100088608093B20283FDE7CFC0CF0E94E507A4
:103A200090910B03892F97FB87F9805880930B03A4
:103A3000B5CF81E090E00E9432080E94E507AECF4A
:103A4000895321E030E0A90102C0440F551F8A9537
:103A5000E2F7CA01F0CF8D51F4CF80E0089580E005
:103A600008950E942F1D0895CF93C82F8091F402CE
:103A7000882331F0813099F01092F40280E00DC07B
:103A80000E94610C8232D1F78C2F0E942F1D811170
:103A900016C08C2F0E94C21C8170CF9108950E9485
:103AA000610C823289F38C2F0E94311D811105C077
:103AB000C43171F038F4CB3079F781E0EDCF81E09B
:103AC00090E0EACFC93221F0C833B9F380E0E4CF07
:103AD0001092F402FBCFCF93DF93EB0186319C472A
:103AE00011F50E94610C9D81992399F08A7A91E0E9
:103AF00009F490E09093F502811109C089E20E94D7
:103B00003C200E94150D80E0DF91CF91089585E360
:103B1000F6CF8091F502811104C089E20E94532002
:103B2000F0CF85E3FBCF81E0EFCFCF93DF93EC01C4
:103B3000FB018581882309F4D2C09E0130572332CE
:103B4000310508F0B2C00E949F0D90930C03809342
:103B50000B03FE01E150F047E232F10520F4E75695
:103B6000F54D0C949D2880910B03816080930B038D
:103B700093C080910C03886080930C038DC080916A
:103B80000B038260F3CF80910B038460EFCF8091B1
:103B90000B038860EBCF80910C038160EDCF8091A7
:103BA0000C038260E9CF80910B038061DFCF8091AD
:103BB0000B038062DBCF80910B038064D7CF0E9420
:103BC000E50780910B038068D1CF80910B038C6057
:103BD000CDCF80910C038360CFCF80910B038E7F7C
:103BE000C5CF80910C03877FC7CF80910B038D7F5A
:103BF000BDCF80910B038B7FB9CF80910B03877F63
:103C0000B5CF80910C038E7FB7CF80910C038D7F51
:103C1000B3CF80910B038F7EA9CF80910B038F7D53
:103C2000A5CF80910B038F7BA1CF0E94E5078091E8
:103C30000B038F779BCF80910B03837F97CF80916E
:103C40000C038C7F99CF80910B0382FB992790F90D
:103C500021E0922790FB82F990FB83F987CF809136
:103C60000C03982F909591708E7F892B90FB81F992
:103C700083CF90910B03892F8F7B96FF806476CF43
:103C80000E94E50790910B03892F97FB87F98058D5
:103C90006DCF81E00E942D0E80910B0390910C035B
:103CA0000E94A40D0E94E50780E0DF91CF91089566
:103CB00080E0F0CF90910B03892F8F7E94FF80617D
:103CC00055CF90910B03892F8E7F90FF81604ECF4F
:103CD00090910C03892F877F93FF88604DCF81E0FF
:103CE000E4CF0F931F93CF93DF93C42FD22FFC0108
:103CF00085818823C9F04093F8020E942A2190937D
:103D0000F7028093F60280E28C0F883040F4C7708F
:103D100081E001C0880FCA95EAF70E949805DF91FB
:103D2000CF911F910F9108951091F802141332C092
:103D30008091F6029091F7020E944221883C910501
:103D400048F5C0E2CD0F1D17B9F080E2810F883031
:103D500040F4177081E001C0880F1A95EAF70E94BD
:103D60009F05C83048F481E09D2F977001C0880FEF
:103D70009A95EAF70E949805802F0E948F05C83017
:103D800070F6D77081E001C0880FDA95EAF70E94DB
:103D90009F05C5CF80E28C0F883008F6C77081E0A0
:103DA00001C0880FCA95EAF7F2CF0F93DB01885163
:103DB0009C4787309105A0F5FC01E554F54D0C9426
:103DC0009D2806E221EE41EE6AE17CE7CD010E94EA
:103DD000711E80E00F91089507E225EE45EE6BE13C
:103DE0007CE7F4CF06E221EE40EE68E17CE7EECF1F
:103DF00007E225EE44EE69E17CE7E8CF06E221EE3A
:103E000042EE6CE17CE7E2CF07E225EE46EE6DE1A3
:103E10007CE7DCCF08E221E045EE6EE17CE7D6CF1F
:103E200015968C91882319F01092F802D3CF81E077
:103E3000D1CF9093FE028093FD020895E091FD02A0
:103E4000F091FE02309729F00190F081E02D099564
:103E5000089580E008950E941E1F0895E091FD02DC
:103E6000F091FE02309721F00280F381E02D099558
:103E70000895E091FD02F091FE02309739F026E0BE
:103E8000DC012C930480F581E02D09950895A3E0D1
:103E9000B0E0EDE4FFE10C94E4282091FB023091C6
:103EA000FC0228173907A1F09093FC028093FB02D3
:103EB000E091FD02F091FE02309751F023E029835A
:103EC0009B838A830084F185E02DCE0101960995BC
:103ED0002396E2E00C940029A3E0B0E0E2E7FFE1E2
:103EE0000C94E4282091F9023091FA02281739073E
:103EF000A1F09093FA028093F902E091FD02F09113
:103F0000FE02309751F024E029839B838A8300844A
:103F1000F185E02DCE01019609952396E2E00C94FF
:103F2000002920910601309107012E5F3F4F8091BB
:103F30002501882379F080910B0387FF0BC0209126
:103F40000401309105012E5F3F4F9EE180E09150CA
:103F500018F4089596E0FACFF90141919F014423A6
:103F6000B1F38F5FF4CF882321F19091250199233C
:103F700011F190910B0397FF1EC0E82FE695E6958F
:103F8000E695EE31B0F42091040130910501E20F85
:103F9000F32FF11D228130E0877041E050E002C034
:103FA000440F551F8A95E2F72423352381E0232B04
:103FB00091F480E008952091060130910701F90104
:103FC0003296285F3F4F9191981721F0E217F3073F
:103FD000D1F7EFCF81E008959C01FC0132969FEF6D
:103FE00080E04191461751F09F3F19F4411101C003
:103FF000982F8F5F8630A9F79F3F09F40895290F06
:10400000311D97FD3A95F90162830895FC013296BE
:1040100008962191261303C0DF0111971C92E8171F
:10402000F907B9F70895E62FE695E695E695EE319E
:1040300068F4E80FF92FF11D677021E030E001C04E
:10404000220F6A95EAF78281822B82830895E62FF8
:10405000E695E695E695EE3170F4E80FF92FF11D3F
:10406000677021E030E001C0220F6A95EAF72095E1
:104070008281282322830895682F80912501882337
:1040800059F080910B0387FF07C080910401909144
:1040900005010E9413200895809106019091070167
:1040A0000E94EC1F0895682F80912501882359F004
:1040B00080910B0387FF07C0809104019091050157
:1040C0000E942720089580910601909107010E9487
:1040D0000620089580912501882379F080910B03B3
:1040E00087FF0BC0E0910401F091050132968EE14B
:1040F000DF011D928A95E9F70895E0910601F0919C
:104100000701329686E0F4CF08950E948420089536
:10411000811106C081E08093FF020E9485200895EE
:1041200082E0F9CF83E08093FF020E94852008950A
:104130000E948820089581E08093FF020E948520DC
:1041400008950E949B200895089508950E94A52037
:104150000895089508950E94A4200895CF930E9481
:10416000A9200E9439120E94AA20C0E08C2F0E9430
:104170005D11892B31F4CF5FC530C1F780E0CF915D
:10418000089581E0FCCF85B7806885BF85B78068DA
:1041900085BF08951F921FB61F9211248F939F937E
:1041A000AF93BF9380910003811113C080914803A6
:1041B00090914903A0914A03B0914B034196A11DF0
:1041C000B11D8093480390934903A0934A03B09391
:1041D0004B03BF91AF919F918F911F901FBE1F9076
:1041E000189580915003843031F10E94150410928B
:1041F000000388E190E020E40FB6F894A89580933E
:1042000060000FBE2093600083B7817F846083BF0E
:1042100083B7816083BF7894889583B78E7F83BF8F
:104220000FB6F894A8958091600088618093600033
:10423000109260000FBE08950E94E5070E941D04C1
:10424000089582E084BD93E095BD9AEF97BD809379
:104250006E0008952FB7F894809148039091490318
:10426000A0914A03B0914B032FBF08952FB7F89444
:10427000609148037091490380914A0390914B03E8
:104280002FBF08959C014FB7F894809148039091F7
:104290004903A0914A03B0914B034FBF821B930B7C
:1042A000089578941F921FB61F9211248F939F93A5
:1042B000AF93BF938091480390914903A0914A0323
:1042C000B0914B030196A11DB11D809348039093BB
:1042D0004903A0934A03B0934B03BF91AF919F91C1
:1042E0008F911F901FBE1F90189581E08093E00072
:1042F00080E28093D8001092C9008FE19EE401977C
:10430000F1F700C0000087E090EBDC0180935903D7
:1043100090935A03A0935B03B0935C0388E19CE005
:104320000FB6F894A895809360000FBE909360003C
:10433000FFCF88E19CE00FB6F894A89580936000C9
:104340000FBE90936000FFCF8091090308950895F8
:104350009B01BA01909150039430E9F48F708093DF
:10436000E9009FEF8091E800915085FD06C085ED42
:104370008A95F1F700009111F5CF8091E80085FF53
:104380000AC050E040E0C9010E94A2238091E800E9
:104390008E778093E800089543E050E0BC0182E00E
:1043A0000E94A821089540E250E0BC0182E00E94F2
:1043B000A8210895CF93DF93EC0148E050E0BC01C1
:1043C00081E00E94A82188E0FE01A1E0B3E0019015
:1043D0000D928A95E1F7DF91CF91089580914F0377
:1043E000811109C00E9432250E948F258091E20030
:1043F00084608093E200089510924F0308950E9414
:104400009B20089560914C0381E0611101C080E020
:104410000E94922008959091500381E0943009F019
:1044200080E060914C030E949820089542E061EC86
:1044300081E00E94AE2442E261EC82E00E94AE2460
:104440009091500381E0943009F080E060914C033A
:104450000E948820089580915203833009F461C03E
:1044600030F48130D1F1823009F49EC008958A3051
:1044700009F48AC08B3009F46FC0893009F050C04C
:1044800080915103813209F04BC080915503909186
:104490005603029708F044C08091E800877F80931C
:1044A000E8008091E80082FF37C09091F30080918E
:1044B000F200029731F48091F100813011F08630E2
:1044C00021F48091F100809309038091E8008B77BB
:1044D0008093E8000E94E22423C080915103813A36
:1044E000F9F48091E800877F8093E800809155037C
:1044F00090915603892B61F468E081E093E070E0CD
:104500000E94F1238091E8008B778093E800089562
:1045100060E090E080E0F3CF809150038111C1CF43
:10452000089580915103813AD9F780915503909174
:104530005603892BA9F78091E800877F8093E800D4
:104540008091E80080FFFCCF809125018093F100ED
:104550008091E8008E77BCCF80915103813201F7C2
:104560008091550390915603892BD1F68091E800F4
:10457000877F8093E8000E94E22480915303809318
:1045800025010E94E507089580915103813241F68B
:104590008091E800877F8093E8000E94E224809168
:1045A000540380930A03089580915103813A09F0DE
:1045B000B7CF8091E800877F8093E8008091E80082
:1045C00080FFFCCF80910A03C1CF84B7877F84BF6F
:1045D0000FB6F894A8958091600088618093600080
:1045E000109260000FBE80E890E00FB6F8948093C0
:1045F0006100909361000FBE0E94A12008950E9467
:1046000032250E948F25E2EEF0E080818460808375
:1046100078940E940E2808958BE191E00E94191F62
:10462000089580915003853031F480915003853096
:1046300019F00E941C2108950E94F12080914E03E0
:10464000882399F30E94AE20882379F30E948C235B
:104650000E94E507EACF08959A01409157035091CF
:1046600058030E9434230895492F5527433051059C
:1046700019F168F44130510509F444C04230510544
:1046800009F445C090E080E050E040E025C04132B0
:10469000510549F142325105A9F784E490E04AE519
:1046A00055E061157105C1F08DE690E04DEE54E0E6
:1046B0006130710589F0E6CF99278130910581F04D
:1046C000009729F00297F1F6EAE6F4E002C0ECE97F
:1046D000F4E0849190E0AF01F901518340830895A3
:1046E000ECE7F4E0F6CF89E090E042EB54E06115AE
:1046F000710591F389E090E04BEC54E06130710575
:1047000059F3C0CF82E190E04BED54E0E5CF8BE36D
:1047100090E040EA54E0E0CF80E189BD82E189BDCC
:1047200009B400FEFDCF8091D8008F7D8093D80022
:104730008091E00082608093E0008091E00081FD44
:10474000FCCF0895AF92BF92CF92DF92FF920F936A
:104750001F93CF93DF936C01EB018A010E94012527
:10476000F82E811123C00115110539F0F80180815F
:104770009181C81BD90BC80ED91EB12CA12C209732
:10478000A9F08091E80085FD22C08091E8008E7735
:104790008093E80001151105A1F0F8018081918155
:1047A000A80EB91EB182A08285E0F82E8F2DDF9170
:1047B000CF911F910F91FF90DF90CF90BF90AF905E
:1047C00008950E9401258823D1F2F82EEFCFF6013B
:1047D00081916F018093F1002197FFEFAF1ABF0A1B
:1047E000CECFFC018091570390915803861797070D
:1047F000A0F06115710529F49091E8009E779093DF
:10480000E80090E06115710551F4911108C08091A4
:10481000E80082FF34C080E00895BC01F2CF8091AF
:1048200050038823C1F18530C1F18091E80083FDF8
:1048300030C08091E80082FDEACF8091E80080FFDF
:10484000E1CF8091F3002091F200382F61157105BE
:1048500019F02830310558F091E02830310509F081
:1048600090E02091E8002E772093E800CBCF819153
:104870008093F100615071092F5F3F4FE7CF809126
:104880005003882341F0853041F08091E80083FF98
:10489000BECF81E0089582E0089583E00895FC0191
:1048A000809157039091580386179707A0F06115E0
:1048B000710529F48091E8008E778093E80090E0FC
:1048C0006115710551F4911108C08091E80082FFD3
:1048D00035C080E00895BC01F2CF80915003882359
:1048E000C9F18530C9F18091E80083FD31C0809124
:1048F000E80082FDEACF8091E80080FFE1CF80915F
:10490000F3002091F200382F6115710519F028305D
:10491000310558F091E02830310509F090E08091A0
:10492000E8008E778093E800CBCF84918093F100EC
:104930003196615071092F5F3F4FE6CF8091500350
:10494000882341F0853041F08091E80083FFBDCF9E
:1049500081E0089582E0089583E00895982F9730CC
:1049600028F08F708093E90081E008959093E9002A
:10497000242F762F50E0981731F07091EC002091A1
:10498000ED005091F00021FD02C09F5FE8CF309113
:10499000EB003E7F3093EB003091ED003D7F309394
:1049A000ED003091EB0031603093EB007093EC0040
:1049B0002093ED005093F0002091EE0027FDE5CF0D
:1049C00080E008958091510387FF13C08091E80033
:1049D00082FF06C08091E8008B778093E80004C0D6
:1049E000809150038111F2CF089580915003882364
:1049F000D9F38091E80080FFF8CF8091E8008E77AE
:104A0000ECCF2091E4003091E50095E6A9012091DA
:104A1000EC00822F817020FF06C08091E80080FFAB
:104A200006C080E008952091E80022FD1AC0809120
:104A30005003882389F0853089F08091EB0085FD53
:104A40000FC02091E4003091E50042175307F9F2BE
:104A50009150E1F684E0089582E0089583E008959E
:104A600081E008950E94A1250E94A925E0EEF0E0D2
:104A7000808181608083E8EDF0E080818F778083A2
:104A800019BCA7EDB0E08C918E7F8C9380818F7ED6
:104A9000808310924F0308950F931F93CF93DF935A
:104AA0000E94A1250E94A925C8EDD0E088818F77BA
:104AB000888388818068888388818F7D888319BCFA
:104AC0001092500310924C0310924E0310924D031B
:104AD00000EE10E0F80180818B7F80838881816007
:104AE000888342E060E080E00E94AE24E1EEF0E0E6
:104AF00080818E7F8083E2EEF0E080818160808320
:104B0000808188608083F80180818E7F80838881A6
:104B100080618883DF91CF911F910F910895E8ED17
:104B2000F0E080818F7E8083E7EDF0E0808181601E
:104B3000808384E082BF81E080934F030E944C25F4
:104B40000895E8EDF0E080818E7F80831092E2008E
:104B500008951092DA001092E10008951F920F92CA
:104B60000FB60F9211242F933F934F935F936F9340
:104B70007F938F939F93AF93BF93EF93FF93809116
:104B8000E10082FF0BC08091E20082FF07C08091AC
:104B9000E1008B7F8093E1000E940D288091DA0074
:104BA00080FF19C08091D80080FF15C08091DA0085
:104BB0008E7F8093DA008091D90080FF96C080E1DB
:104BC00089BD82E189BD09B400FEFDCF81E08093FB
:104BD00050030E94EE218091E10080FF19C0809176
:104BE000E20080FF15C08091E2008E7F8093E2009A
:104BF0008091E20080618093E2008091D800806221
:104C00008093D80019BC85E0809350030E94022253
:104C10008091E10084FF2BC08091E20084FF27C0D7
:104C200080E189BD82E189BD89B5982F917080FFAF
:104C3000FBCF8091D8008F7D8093D8008091E100D8
:104C40008F7E8093E1008091E2008F7E8093E2006E
:104C50008091E20081608093E20080914C03882380
:104C600009F449C084E0809350030E940B22809194
:104C7000E10083FF29C08091E20083FF25C080917D
:104C8000E100877F8093E10082E0809350031092DF
:104C90004C038091E1008E7F8093E1008091E200DF
:104CA0008E7F8093E2008091E20080618093E20039
:104CB00042E060E080E00E94AE248091F0008860D5
:104CC0008093F0000E94FF21FF91EF91BF91AF917F
:104CD0009F918F917F916F915F914F913F912F9114
:104CE0000F900FBE0F901F90189519BC1092500393
:104CF0000E94FC2170CF8091E30087FD93E09093A8
:104D00005003B3CF1F920F920FB60F9211242F931F
:104D10003F934F935F936F937F938F939F93AF9343
:104D2000BF93CF93DF93EF93FF93D091E900DF70B0
:104D30008091EC00C82FC17080FDC0E81092E9009E
:104D40008091F000877F8093F00078940E94C626BF
:104D50001092E9008091F00088608093F000CD2BE4
:104D6000CF70C093E900FF91EF91DF91CF91BF9198
:104D7000AF919F918F917F916F915F914F913F91F3
:104D80002F910F900FBE0F901F901895AAE2B0E0E0
:104D9000ECECF6E20C94E32881E593E02091F1003D
:104DA000FC012193CF01F3E089359F07B9F70E94F9
:104DB0002B228091E80083FF1EC1809151039091C6
:104DC00052039A3008F017C1E92FF0E0EE53F54D89
:104DD0000C949D28803899F0823809F00CC180919C
:104DE00055038F70873008F006C18093E9008091E9
:104DF000EB0085FB882780F91092E90006C08091BE
:104E00004D0390914E03911182609091E800977F3D
:104E10009093E8008093F1001092F1008091E800F7
:104E20008E77E5C0882309F4D3C0823009F0E3C04F
:104E3000809153038111D6C0809155038F702FEF5D
:104E4000280F263008F0D7C08093E9002091EB00AE
:104E500020FFC8C0933031F48091EB0080628093D2
:104E6000EB00C0C09091EB0090619093EB0021E0CB
:104E700030E001C0220F8A95EAF72093EA001092F1
:104E8000EA008091EB008860EACF8111B4C01091F4
:104E900053031F778091E3008078812B8093E30098
:104EA0008091E800877F8093E8000E94E22480914F
:104EB000E80080FFFCCF8091E30080688093E300EE
:104EC00082E0111183E08093500395C080588230B6
:104ED00008F091C080915303909154038C3D23E0DE
:104EE0009207A1F583E08A838AE289834FB7F89419
:104EF000DE01139620E03EE051E2E32FF0E0509314
:104F00005700E49120FF03C0E295EF703F5FEF7020
:104F10008E2F90E0EA30C0F0C7968D939D932F5F5F
:104F2000243159F74FBF8091E800877F8093E800D4
:104F30006AE270E0CE0101960E94F1238091E800C0
:104F40008B778093E80057C0C096E7CF60915503F8
:104F500070915603AE014F5F5F4F0E942C23BC013E
:104F6000892B09F448C09091E800977F9093E8005E
:104F700089819A810E944F24E1CF8038E1F58091A8
:104F8000E800877F8093E80080914C038093F100D4
:104F900045CF811130C090915303923060F58091DC
:104FA000E800877F8093E80090934C030E94E224FE
:104FB00080914C03882311F084E005C08091E300C8
:104FC00087FDFACF81E0809350030E94162213C020
:104FD00080915303813079F481E0933009F080E0CF
:104FE00080934E031092E9008091E800877F8093C0
:104FF000E8000E94E2248091E80083FF0AC08091CB
:10500000E800877F8093E8008091EB0080628093C6
:10501000EB00AA96E3E00C94FF280895CF938091CB
:1050200050038823A1F0C091E900CF709091EC006B
:10503000892F817090FD80E8C82B1092E900809143
:10504000E80083FD0E94C626CF70C093E900CF918F
:105050000895DB018F939F930E94C128BF91AF9168
:10506000A29F800D911DA39F900DB29F900D1124C2
:105070000895991B79E004C0991F961708F0961BB4
:10508000881F7A95C9F78095089587FB082E062614
:1050900087FD819567FD61950E9439280EF49195F1
:1050A00007FC81950895AA1BBB1B51E107C0AA1FED
:1050B000BB1FA617B70710F0A61BB70B881F991FB9
:1050C0005A95A9F780959095BC01CD01089597FB5D
:1050D000072E16F4009407D077FD09D00E945328BC
:1050E00007FC05D03EF4909581959F4F08957095EB
:1050F00061957F4F0895A1E21A2EAA1BBB1BFD01EB
:105100000DC0AA1FBB1FEE1FFF1FA217B307E407A6
:10511000F50720F0A21BB30BE40BF50B661F771FFE
:10512000881F991F1A9469F76095709580959095DE
:105130009B01AC01BD01CF010895EE0FFF1F05904B
:10514000F491E02D09940E94AB28332312F48A1BBA
:105150009B0B0C94BC28A29FB001B39FC001A39FDE
:10516000700D811D1124911DB29F700D811D1124A0
:10517000911D08950E94AB28B7FF0895821B930BE1
:1051800008950E94AB28A59F900DB49F900DA49FF9
:10519000800D911D11240895B7FF0C94C1280E9421
:1051A000C128821B930B08952F923F924F925F92DA
:1051B0006F927F928F929F92AF92BF92CF92DF9227
:1051C000EF92FF920F931F93CF93DF93CDB7DEB78C
:1051D000CA1BDB0B0FB6F894DEBF0FBECDBF099420
:1051E0002A88398848885F846E847D848C849B8477
:1051F000AA84B984C884DF80EE80FD800C811B8185
:10520000AA81B981CE0FD11D0FB6F894DEBF0FBEB3
:10521000CDBFED010895002E083090F0982F872F14
:10522000762F652F542F432F322F22270850F4CF8B
:10523000220F331F441F551F661F771F881F991F9A
:105240000A95B2F7002D089597FD1094002E0830AE
:1052500098F00850232F342F452F562F672F782F83
:10526000892F912DF4CF159497958795779567950C
:1052700057954795379527950A95AAF71124002D3C
:1052800008958F929F92AF92BF92CF92DF92EF924A
:10529000FF92CF93DF93EC01688179818A819B81B2
:1052A000611571058105910521F464E279ED8BE5C5
:1052B00097E02DE133EF41E050E00E94182A4901C8
:1052C0005A019B01AC01A7EAB1E40E94C1286B011D
:1052D0007C01ACEEB4EFA50194010E94CF28DC0163
:1052E000CB018C0D9D1DAE1DBF1DB7FF03C00197E7
:1052F000A109B04888839983AA83BB839F77DF91F4
:10530000CF91FF90EF90DF90CF90BF90AF909F90A4
:105310008F9008950E944129089580E091E00E94B5
:1053200041290895B0E0A0E080930001909301012D
:10533000A0930201B09303010895FC014150504035
:1053400030F001900616D1F73197CF0108958827E4
:1053500099270895FB01DC0104C08D91019080190B
:1053600021F441505040C8F7881B990B0895FB0168
:10537000DC0102C001900D9241505040D8F70895D1
:10538000F999FECF92BD81BDF89A992780B508950D
:10539000A6E1B0E044E050E00C940A2AA8E1B0E0B5
:1053A00042E050E00C940A2ADC01A40FB51F4150E2
:1053B000504048F0CB01840F951F2E910E94E529A3
:1053C00041505040D0F70895262FF999FECF92BD55
:1053D00081BDF89A019700B4021639F01FBA20BDBA
:1053E0000FB6F894FA9AF99A0FBE08950396272FEC
:1053F0000E94E5290E94E429252F0E94E529242FF7
:105400000C94E5290196272F0E94E5290C94E429A4
:10541000DC01CB01FC01F999FECF06C0F2BDE1BD74
:10542000F89A319600B40D9241505040B8F7089563
:10543000052E97FB1EF400940E942F2A57FD07D0DB
:105440000E947B2807FC03D04EF40C942F2A509521
:105450004095309521953F4F4F4F5F4F0895909560
:105460008095709561957F4F8F4F9F4F0895F89469
:10547000FFCFE705E705370637069C061606160632
:105480001606B806290738073807541A5B1A621A35
:10549000671A6C1A711A761A7B1A801A851A8A1A78
:1054A0008F1A931A981A9B1A9E1AA11AA41AA61A4E
:1054B000A91AAB1AD91CD01CDC1CCE1C2D1D2D1D0D
:1054C000CE1C2D1D2D1DF81C2D1D031D0E1D2D1D6B
:1054D0002D1D2D1D2D1DCE1C2D1D2D1DCE1C2D1D3C
:1054E000EA1C2D1D2D1D2B1D2B1D2B1D2B1D2B1DBA
:1054F0002B1D2B1D2B1D2B1D191D2D1DD91CCC1C2F
:105500002D1D2D1D2D1D2D1D2D1D2D1D2D1D2D1D4B
:105510002D1D2D1D191D2D1D2D1DCE1C2D1D201DBC
:10552000201D201D201D201D201D201D201D201D93
:10553000191DED1D611EF51DBF1DC31DF91DC71DE4
:10554000FD1D091ED31D5A1ED71D0D1EDB1D111E6C
:10555000391EDF1D151E401EE51D1B1E231ECB1D03
:10556000011ECF1D051EE91D1F1E2F1E491E581EA0
:10557000B91DF11D681EF21EF81EE11EEC1EFE1E76
:10558000041F0A1FEA261227FB271227FB2745279D
:085590006627FB27BD27C92790
:105598000100000074029402010102000A000A0AD4
:1055A80001191A1B1C1D1E1F202122A421DA21D338
:1055B80021A721CC2101E200E900EA00B500B600EC
:1055C800B700CD008301CC008A0192019401210229
:1055D800230224022502260227022A02B300B4006D
:1055E8006F0070009F01CB019F02A002818283E2BD
:1055F80000E900EA00B500B600B700CD008301CC91
:10560800008A019201940121022302240225022624
:105618000227022A02B300B4006F0070009F01CB7A
:10562800019F02A002818283F0F1C6676636943139
:105638003235349796339091929395000102020285
:10564800020606060909090909090F0F0F0F0F0FAE
:1056580015151518191919191919191919192324AA
:08566800252525252525751CCB
:00000001FF
